S00C0000636F64652E737265637D
S11300000C942A000C94F8020C9421030C944A03D7
S11300100C9447000C9447000C9447000C94470040
S11300200C9447000C9447000C9447000C94470030
S11300300C9447000C9447000C9447000C94470020
S11300400C9447000C9447000C9447000C94470010
S11300500C94470011241FBECFE5D8E0DEBFCDBF0E
S113006010E0A0E6B0E0ECEDFAE002C005900D92DD
S1130070A83FB107D9F720E0A8EFB0E001C01D9276
S1130080AE3FB207E1F70E94B5030C946C050C94E3
S1130090000087B1806487B987B18F7787B987B14A
S11300A0806287B986B1887F86B986B1876086B950
S11300B086B1806886B9089597B1907E97B997B153
S11300C0892B87B986B1806486B9349BFECF86B10B
S11300D0806186B985B10895CF93C82F682F607F5A
S11300E083E00E94E20240E060E082E00E945F025E
S11300F040E061E082E00E945F0241E062E082E071
S11301000E945F028FE99FE00197F1F700C00000B1
S113011040E062E082E00E945F028FEC97E001978A
S1130120F1F700C000006C2F6295607F83E00E94AD
S1130130E20241E062E082E00E945F028FE99FE018
S11301400197F1F700C0000040E062E082E00E9405
S11301505F028FEC97E00197F1F700C0000080E0A8
S1130160CF910895CF93C82F682F607F83E00E94BA
S1130170E20241E060E082E00E945F0240E061E070
S113018082E00E945F0241E062E082E00E945F023E
S11301908FE99FE00197F1F700C0000040E062E0C2
S11301A082E00E945F028FEC97E00197F1F700C0B4
S11301B000006C2F6295607F83E00E94E20241E0C0
S11301C062E082E00E945F028FE99FE00197F1F70D
S11301D000C0000040E062E082E00E945F028FEC19
S11301E097E00197F1F700C00000CF91089541E036
S11301F064E083E00E94DC0141E065E083E00E946A
S1130200DC0141E066E083E00E94DC0141E067E05C
S113021083E00E94DC0141E062E082E00E94DC01B4
S113022041E060E082E00E94DC0141E061E082E0C4
S11302300E94DC0140E062E082E00E945F022FEF56
S113024089EF90E0215080409040E1F700C0000029
S113025083E30E946C0082E30E946C0088E20E94A7
S11302606C008EE00E946C0081E00E946C008FE1C3
S11302709EE40197F1F700C0000086E00E946C0044
S113028008950F931F93CF938C01C0E003C00E9485
S1130290B200CF5FF801EC0FF11D80818111F7CF1F
S11302A0CF911F910F910895CF93DF9300D000D089
S11302B0CDB7DEB790E8998390EC9A8394E99B8359
S11302C094ED9C83E82FF0E0319781E090E08C0F6F
S11302D09D1FE80FF91F8081860F81500E946C00DA
S11302E08FEC97E00197F1F700C000000F900F909A
S11302F00F900F90DF91CF9108958F929F92AF92BC
S1130300BF92CF92DF92EF92FF92C12CD12C760153
S113031022C02AE030E040E050E00E944A05460155
S11303205701880C991CAA1CBB1C75016401CC0CD8
S1130330DD1CEE1CFF1CCC0CDD1CEE1CFF1CC80CD1
S1130340D91CEA1CFB1CC60ED71EE81EF91E622F20
S1130350732F842F952F6115710581059105C9F6B9
S1130360C701B601FF90EF90DF90CF90BF90AF90A0
S11303709F908F900895CF92DF92EF92FF920E9408
S11303807D016B017C010EC0C701B6012AE030E09B
S113039040E050E00E944A0569017A0180E3860F3B
S11303A00E94B200C114D104E104F10469F7FF9082
S11303B0EF90DF90CF900895683008F078C0411135
S11303C03CC0813099F028F08230E9F0833041F16B
S11303D070C02AB381E090E002C0880F991F6A952B
S11303E0E2F7809582238ABB80E0089527B381E0F9
S11303F090E002C0880F991F6A95E2F780958223E6
S113040087BB80E0089524B381E090E002C0880FA8
S1130410991F6A95E2F78095822384BB80E0089552
S113042021B381E090E002C0880F991F6A95E2F73A
S11304308095822381BB80E008954130E1F58130CD
S113044091F028F08230D9F0833029F136C02AB3F4
S113045081E090E002C0880F991F6A95E2F7822B31
S11304608ABB80E0089527B381E090E002C0880F42
S1130470991F6A95E2F7822B87BB80E0089524B325
S113048081E090E002C0880F991F6A95E2F7822B01
S113049084BB80E0089521B381E090E002C0880F1E
S11304A0991F6A95E2F7822B81BB80E0089581E071
S11304B0089581E0089581E0089581E00895683009
S11304C008F078C041113CC0813099F028F08230A6
S11304D0E9F0833041F170C02BB381E090E002C0B9
S11304E0880F991F6A95E2F7809582238BBB80E081
S11304F0089528B381E090E002C0880F991F6A959F
S1130500E2F78095822388BB80E0089525B381E0DB
S113051090E002C0880F991F6A95E2F780958223C4
S113052085BB80E0089522B381E090E002C0880F8B
S1130530991F6A95E2F78095822382BB80E0089533
S11305404130E1F5813091F028F08230D9F08330E8
S113055029F136C02BB381E090E002C0880F991FC7
S11305606A95E2F7822B8BBB80E0089528B381E083
S113057090E002C0880F991F6A95E2F7822B88BB2E
S113058080E0089525B381E090E002C0880F991FB0
S11305906A95E2F7822B85BB80E0089522B381E05F
S11305A090E002C0880F991F6A95E2F7822B82BB04
S11305B080E0089581E0089581E0089581E0089540
S11305C081E00895813049F028F0823049F0833089
S11305D051F00CC06BBB80E0089568BB80E00895C7
S11305E065BB80E0089562BB80E0089581E00895D2
S11305F01F920F920FB60F9211242F933F934F9394
S11306005F936F937F938F939F93AF93BF93EF9376
S1130610FF93E091F800F091F900309709F0099503
S1130620FF91EF91BF91AF919F918F917F916F91C6
S11306305F914F913F912F910F900FBE0F901F909C
S113064018951F920F920FB60F9211242F933F9378
S11306504F935F936F937F938F939F93AF93BF93C6
S1130660EF93FF93E091FA00F091FB00309709F0CB
S11306700995FF91EF91BF91AF919F918F917F91D8
S11306806F915F914F913F912F910F900FBE0F90FB
S11306901F9018951F920F920FB60F9211242F934B
S11306A03F934F935F936F937F938F939F93AF93F6
S11306B0BF93EF93FF938091FC009091FD00892BF1
S11306C029F0E091F800F091F9000995FF91EF917C
S11306D0BF91AF919F918F917F916F915F914F9156
S11306E03F912F910F900FBE0F901F90189540E0EF
S11306F060E080E00E94DC0140E061E080E00E9474
S1130700DC0140E062E080E00E94DC0140E063E064
S113071080E00E94DC0141E064E080E00E94DC01B2
S113072041E065E080E00E94DC0141E066E080E0B9
S11307300E94DC0141E067E080E00E94DC0141E0CE
S113074064E080E00E945F0241E065E080E00E9496
S11307505F0241E066E080E00E945F0241E067E002
S113076080E00E945F0280E008950E94ED030E94F1
S1130770F5032FEF84E39CE0215080409040E1F7A3
S113078000C0000081E00E946C0080E00E94FB0336
S1130790D82F81E00E941C04C82F61E081E00E94F0
S11307A0540180E690E00E9441016D2F70E080E0EA
S11307B090E00E94BB0183E40E94B20061E082E009
S11307C00E94540187E690E00E9441016C2F70E082
S11307D080E090E00E94BB01D8CF0E94F7000E9405
S11307E077030E94490080E008958FE690E00E941C
S11307F0410180E0089590E00E945C009927BC01CB
S1130800660F771F660F771F680F791F072E000C7E
S1130810880B990B0E94510420E030E040E85BE330
S11308200E94B50420E030E048EC52E40E94B50494
S11308300E942004862F089590E00E945C00089591
S11308400E94940488F09F5798F0B92F9927B751C4
S1130850B0F0E1F0660F771F881F991F1AF0BA9560
S1130860C9F714C0B13091F00E94AE04B1E008950C
S11308700C94AE04672F782F8827B85F39F0B93FFE
S1130880CCF3869577956795B395D9F73EF4909513
S11308908095709561957F4F8F4F9F4F0895E89491
S11308A009C097FB3EF490958095709561957F4FB4
S11308B08F4F9F4F9923A9F0F92F96E9BB27939562
S11308C0F695879577956795B795F111F8CFFAF472
S11308D0BB0F11F460FF1BC06F5F7F4F8F4F9F4FA3
S11308E016C0882311F096E911C0772321F09EE801
S11308F0872F762F05C0662371F096E8862F70E067
S113090060E02AF09A95660F771F881FDAF7880F40
S11309109695879597F9089557FD9058440F551F5C
S113092059F05F3F71F04795880F97FB991F61F06D
S11309309F3F79F087950895121613061406551FE4
S1130940F2CF4695F1DF08C0161617061806991F50
S1130950F1CF86957105610508940895E894BB2745
S113096066277727CB0197F908950E94C8040C9451
S113097039050E942B0538F00E94320520F095239A
S113098011F00C9422050C94280511240C94AF0446
S11309900E948C0470F3959FC1F3950F50E0551F8E
S11309A0629FF001729FBB27F00DB11D639FAA27C0
S11309B0F00DB11DAA1F649F6627B00DA11D661F0F
S11309C0829F2227B00DA11D621F739FB00DA11D30
S11309D0621F839FA00D611D221F749F3327A00DEA
S11309E0611D231F849F600D211D822F762F6A2F86
S11309F011249F5750409AF0F1F088234AF0EE0FEB
S1130A00FF1FBB1F661F771F881F91505040A9F717
S1130A109E3F510580F00C9422050C94AF045F3F77
S1130A20E4F3983ED4F3869577956795B795F79553
S1130A30E7959F5FC1F7FE2B880F911D96958795CB
S1130A4097F9089597F99F6780E870E060E008954A
S1130A509FEF80EC089500240A94161617061806D2
S1130A600906089500240A941216130614060506AE
S1130A700895092E0394000C11F4882352F0BB0F3F
S1130A8040F4BF2B11F460FF04C06F5F7F4F8F4FA2
S1130A909F4F0895A1E21A2EAA1BBB1BFD010DC096
S1130AA0AA1FBB1FEE1FFF1FA217B307E407F5071A
S1130AB020F0A21BB30BE40BF50B661F771F881FF6
S1130AC0991F1A9469F760957095809590959B018C
S10F0AD0AC01BD01CF010895F894FFCFE4
S1130ADC54656D703A20004C696768743A2000576D
S1130AEC656C636F6D6520494D5420576F726C644F
S1130AFC0054595045204E455720504153533A0009
S1130B0C456E746572206E657720506173733A205C
S1130B1C00456E746572205061737320616761695E
S1130B2C6E3A20004572726F7220696E20506173A8
S1130B3C73776F726400312D204F70656E20322DE7
S1130B4C2053757370656E643A2000456E7465723B
S1130B5C204F7074696F6E733A2000456E74657221
S10B0B6C20506173733A20006C
S9030000FC
